{
  "contractName": "BABYCAKEDividendTracker",
  "abi": [
    {
      "inputs": [],
      "stateMutability": "nonpayable",
      "type": "constructor"
    },
    {
      "anonymous": false,
      "inputs": [
        {
          "indexed": true,
          "internalType": "address",
          "name": "owner",
          "type": "address"
        },
        {
          "indexed": true,
          "internalType": "address",
          "name": "spender",
          "type": "address"
        },
        {
          "indexed": false,
          "internalType": "uint256",
          "name": "value",
          "type": "uint256"
        }
      ],
      "name": "Approval",
      "type": "event"
    },
    {
      "anonymous": false,
      "inputs": [
        {
          "indexed": true,
          "internalType": "address",
          "name": "account",
          "type": "address"
        },
        {
          "indexed": false,
          "internalType": "uint256",
          "name": "amount",
          "type": "uint256"
        },
        {
          "indexed": true,
          "internalType": "bool",
          "name": "automatic",
          "type": "bool"
        }
      ],
      "name": "Claim",
      "type": "event"
    },
    {
      "anonymous": false,
      "inputs": [
        {
          "indexed": true,
          "internalType": "uint256",
          "name": "newValue",
          "type": "uint256"
        },
        {
          "indexed": true,
          "internalType": "uint256",
          "name": "oldValue",
          "type": "uint256"
        }
      ],
      "name": "ClaimWaitUpdated",
      "type": "event"
    },
    {
      "anonymous": false,
      "inputs": [
        {
          "indexed": true,
          "internalType": "address",
          "name": "to",
          "type": "address"
        },
        {
          "indexed": false,
          "internalType": "uint256",
          "name": "weiAmount",
          "type": "uint256"
        }
      ],
      "name": "DividendWithdrawn",
      "type": "event"
    },
    {
      "anonymous": false,
      "inputs": [
        {
          "indexed": true,
          "internalType": "address",
          "name": "from",
          "type": "address"
        },
        {
          "indexed": false,
          "internalType": "uint256",
          "name": "weiAmount",
          "type": "uint256"
        }
      ],
      "name": "DividendsDistributed",
      "type": "event"
    },
    {
      "anonymous": false,
      "inputs": [
        {
          "indexed": true,
          "internalType": "address",
          "name": "account",
          "type": "address"
        }
      ],
      "name": "ExcludeFromDividends",
      "type": "event"
    },
    {
      "anonymous": false,
      "inputs": [
        {
          "indexed": true,
          "internalType": "address",
          "name": "previousOwner",
          "type": "address"
        },
        {
          "indexed": true,
          "internalType": "address",
          "name": "newOwner",
          "type": "address"
        }
      ],
      "name": "OwnershipTransferred",
      "type": "event"
    },
    {
      "anonymous": false,
      "inputs": [
        {
          "indexed": true,
          "internalType": "address",
          "name": "from",
          "type": "address"
        },
        {
          "indexed": true,
          "internalType": "address",
          "name": "to",
          "type": "address"
        },
        {
          "indexed": false,
          "internalType": "uint256",
          "name": "value",
          "type": "uint256"
        }
      ],
      "name": "Transfer",
      "type": "event"
    },
    {
      "inputs": [],
      "name": "CAKE",
      "outputs": [
        {
          "internalType": "address",
          "name": "",
          "type": "address"
        }
      ],
      "stateMutability": "view",
      "type": "function"
    },
    {
      "inputs": [
        {
          "internalType": "address",
          "name": "_owner",
          "type": "address"
        }
      ],
      "name": "accumulativeDividendOf",
      "outputs": [
        {
          "internalType": "uint256",
          "name": "",
          "type": "uint256"
        }
      ],
      "stateMutability": "view",
      "type": "function"
    },
    {
      "inputs": [
        {
          "internalType": "address",
          "name": "owner",
          "type": "address"
        },
        {
          "internalType": "address",
          "name": "spender",
          "type": "address"
        }
      ],
      "name": "allowance",
      "outputs": [
        {
          "internalType": "uint256",
          "name": "",
          "type": "uint256"
        }
      ],
      "stateMutability": "view",
      "type": "function"
    },
    {
      "inputs": [
        {
          "internalType": "address",
          "name": "spender",
          "type": "address"
        },
        {
          "internalType": "uint256",
          "name": "amount",
          "type": "uint256"
        }
      ],
      "name": "approve",
      "outputs": [
        {
          "internalType": "bool",
          "name": "",
          "type": "bool"
        }
      ],
      "stateMutability": "nonpayable",
      "type": "function"
    },
    {
      "inputs": [
        {
          "internalType": "address",
          "name": "account",
          "type": "address"
        }
      ],
      "name": "balanceOf",
      "outputs": [
        {
          "internalType": "uint256",
          "name": "",
          "type": "uint256"
        }
      ],
      "stateMutability": "view",
      "type": "function"
    },
    {
      "inputs": [],
      "name": "claimWait",
      "outputs": [
        {
          "internalType": "uint256",
          "name": "",
          "type": "uint256"
        }
      ],
      "stateMutability": "view",
      "type": "function"
    },
    {
      "inputs": [],
      "name": "decimals",
      "outputs": [
        {
          "internalType": "uint8",
          "name": "",
          "type": "uint8"
        }
      ],
      "stateMutability": "view",
      "type": "function"
    },
    {
      "inputs": [
        {
          "internalType": "address",
          "name": "spender",
          "type": "address"
        },
        {
          "internalType": "uint256",
          "name": "subtractedValue",
          "type": "uint256"
        }
      ],
      "name": "decreaseAllowance",
      "outputs": [
        {
          "internalType": "bool",
          "name": "",
          "type": "bool"
        }
      ],
      "stateMutability": "nonpayable",
      "type": "function"
    },
    {
      "inputs": [
        {
          "internalType": "uint256",
          "name": "amount",
          "type": "uint256"
        }
      ],
      "name": "distributeCAKEDividends",
      "outputs": [],
      "stateMutability": "nonpayable",
      "type": "function"
    },
    {
      "inputs": [
        {
          "internalType": "address",
          "name": "_owner",
          "type": "address"
        }
      ],
      "name": "dividendOf",
      "outputs": [
        {
          "internalType": "uint256",
          "name": "",
          "type": "uint256"
        }
      ],
      "stateMutability": "view",
      "type": "function"
    },
    {
      "inputs": [
        {
          "internalType": "address",
          "name": "",
          "type": "address"
        }
      ],
      "name": "excludedFromDividends",
      "outputs": [
        {
          "internalType": "bool",
          "name": "",
          "type": "bool"
        }
      ],
      "stateMutability": "view",
      "type": "function"
    },
    {
      "inputs": [
        {
          "internalType": "address",
          "name": "spender",
          "type": "address"
        },
        {
          "internalType": "uint256",
          "name": "addedValue",
          "type": "uint256"
        }
      ],
      "name": "increaseAllowance",
      "outputs": [
        {
          "internalType": "bool",
          "name": "",
          "type": "bool"
        }
      ],
      "stateMutability": "nonpayable",
      "type": "function"
    },
    {
      "inputs": [
        {
          "internalType": "address",
          "name": "",
          "type": "address"
        }
      ],
      "name": "lastClaimTimes",
      "outputs": [
        {
          "internalType": "uint256",
          "name": "",
          "type": "uint256"
        }
      ],
      "stateMutability": "view",
      "type": "function"
    },
    {
      "inputs": [],
      "name": "lastProcessedIndex",
      "outputs": [
        {
          "internalType": "uint256",
          "name": "",
          "type": "uint256"
        }
      ],
      "stateMutability": "view",
      "type": "function"
    },
    {
      "inputs": [],
      "name": "minimumTokenBalanceForDividends",
      "outputs": [
        {
          "internalType": "uint256",
          "name": "",
          "type": "uint256"
        }
      ],
      "stateMutability": "view",
      "type": "function"
    },
    {
      "inputs": [],
      "name": "name",
      "outputs": [
        {
          "internalType": "string",
          "name": "",
          "type": "string"
        }
      ],
      "stateMutability": "view",
      "type": "function"
    },
    {
      "inputs": [],
      "name": "owner",
      "outputs": [
        {
          "internalType": "address",
          "name": "",
          "type": "address"
        }
      ],
      "stateMutability": "view",
      "type": "function"
    },
    {
      "inputs": [],
      "name": "renounceOwnership",
      "outputs": [],
      "stateMutability": "nonpayable",
      "type": "function"
    },
    {
      "inputs": [],
      "name": "symbol",
      "outputs": [
        {
          "internalType": "string",
          "name": "",
          "type": "string"
        }
      ],
      "stateMutability": "view",
      "type": "function"
    },
    {
      "inputs": [],
      "name": "totalDividendsDistributed",
      "outputs": [
        {
          "internalType": "uint256",
          "name": "",
          "type": "uint256"
        }
      ],
      "stateMutability": "view",
      "type": "function"
    },
    {
      "inputs": [],
      "name": "totalSupply",
      "outputs": [
        {
          "internalType": "uint256",
          "name": "",
          "type": "uint256"
        }
      ],
      "stateMutability": "view",
      "type": "function"
    },
    {
      "inputs": [
        {
          "internalType": "address",
          "name": "recipient",
          "type": "address"
        },
        {
          "internalType": "uint256",
          "name": "amount",
          "type": "uint256"
        }
      ],
      "name": "transfer",
      "outputs": [
        {
          "internalType": "bool",
          "name": "",
          "type": "bool"
        }
      ],
      "stateMutability": "nonpayable",
      "type": "function"
    },
    {
      "inputs": [
        {
          "internalType": "address",
          "name": "sender",
          "type": "address"
        },
        {
          "internalType": "address",
          "name": "recipient",
          "type": "address"
        },
        {
          "internalType": "uint256",
          "name": "amount",
          "type": "uint256"
        }
      ],
      "name": "transferFrom",
      "outputs": [
        {
          "internalType": "bool",
          "name": "",
          "type": "bool"
        }
      ],
      "stateMutability": "nonpayable",
      "type": "function"
    },
    {
      "inputs": [
        {
          "internalType": "address",
          "name": "newOwner",
          "type": "address"
        }
      ],
      "name": "transferOwnership",
      "outputs": [],
      "stateMutability": "nonpayable",
      "type": "function"
    },
    {
      "inputs": [
        {
          "internalType": "address",
          "name": "_owner",
          "type": "address"
        }
      ],
      "name": "withdrawableDividendOf",
      "outputs": [
        {
          "internalType": "uint256",
          "name": "",
          "type": "uint256"
        }
      ],
      "stateMutability": "view",
      "type": "function"
    },
    {
      "inputs": [
        {
          "internalType": "address",
          "name": "_owner",
          "type": "address"
        }
      ],
      "name": "withdrawnDividendOf",
      "outputs": [
        {
          "internalType": "uint256",
          "name": "",
          "type": "uint256"
        }
      ],
      "stateMutability": "view",
      "type": "function"
    },
    {
      "inputs": [],
      "name": "withdrawDividend",
      "outputs": [],
      "stateMutability": "nonpayable",
      "type": "function"
    },
    {
      "inputs": [
        {
          "internalType": "address",
          "name": "account",
          "type": "address"
        }
      ],
      "name": "excludeFromDividends",
      "outputs": [],
      "stateMutability": "nonpayable",
      "type": "function"
    },
    {
      "inputs": [
        {
          "internalType": "uint256",
          "name": "newClaimWait",
          "type": "uint256"
        }
      ],
      "name": "updateClaimWait",
      "outputs": [],
      "stateMutability": "nonpayable",
      "type": "function"
    },
    {
      "inputs": [],
      "name": "getLastProcessedIndex",
      "outputs": [
        {
          "internalType": "uint256",
          "name": "",
          "type": "uint256"
        }
      ],
      "stateMutability": "view",
      "type": "function"
    },
    {
      "inputs": [],
      "name": "getNumberOfTokenHolders",
      "outputs": [
        {
          "internalType": "uint256",
          "name": "",
          "type": "uint256"
        }
      ],
      "stateMutability": "view",
      "type": "function"
    },
    {
      "inputs": [
        {
          "internalType": "address",
          "name": "_account",
          "type": "address"
        }
      ],
      "name": "getAccount",
      "outputs": [
        {
          "internalType": "address",
          "name": "account",
          "type": "address"
        },
        {
          "internalType": "int256",
          "name": "index",
          "type": "int256"
        },
        {
          "internalType": "int256",
          "name": "iterationsUntilProcessed",
          "type": "int256"
        },
        {
          "internalType": "uint256",
          "name": "withdrawableDividends",
          "type": "uint256"
        },
        {
          "internalType": "uint256",
          "name": "totalDividends",
          "type": "uint256"
        },
        {
          "internalType": "uint256",
          "name": "lastClaimTime",
          "type": "uint256"
        },
        {
          "internalType": "uint256",
          "name": "nextClaimTime",
          "type": "uint256"
        },
        {
          "internalType": "uint256",
          "name": "secondsUntilAutoClaimAvailable",
          "type": "uint256"
        }
      ],
      "stateMutability": "view",
      "type": "function"
    },
    {
      "inputs": [
        {
          "internalType": "uint256",
          "name": "index",
          "type": "uint256"
        }
      ],
      "name": "getAccountAtIndex",
      "outputs": [
        {
          "internalType": "address",
          "name": "",
          "type": "address"
        },
        {
          "internalType": "int256",
          "name": "",
          "type": "int256"
        },
        {
          "internalType": "int256",
          "name": "",
          "type": "int256"
        },
        {
          "internalType": "uint256",
          "name": "",
          "type": "uint256"
        },
        {
          "internalType": "uint256",
          "name": "",
          "type": "uint256"
        },
        {
          "internalType": "uint256",
          "name": "",
          "type": "uint256"
        },
        {
          "internalType": "uint256",
          "name": "",
          "type": "uint256"
        },
        {
          "internalType": "uint256",
          "name": "",
          "type": "uint256"
        }
      ],
      "stateMutability": "view",
      "type": "function"
    },
    {
      "inputs": [
        {
          "internalType": "address payable",
          "name": "account",
          "type": "address"
        },
        {
          "internalType": "uint256",
          "name": "newBalance",
          "type": "uint256"
        }
      ],
      "name": "setBalance",
      "outputs": [],
      "stateMutability": "nonpayable",
      "type": "function"
    },
    {
      "inputs": [
        {
          "internalType": "uint256",
          "name": "gas",
          "type": "uint256"
        }
      ],
      "name": "process",
      "outputs": [
        {
          "internalType": "uint256",
          "name": "",
          "type": "uint256"
        },
        {
          "internalType": "uint256",
          "name": "",
          "type": "uint256"
        },
        {
          "internalType": "uint256",
          "name": "",
          "type": "uint256"
        }
      ],
      "stateMutability": "nonpayable",
      "type": "function"
    },
    {
      "inputs": [
        {
          "internalType": "address payable",
          "name": "account",
          "type": "address"
        },
        {
          "internalType": "bool",
          "name": "automatic",
          "type": "bool"
        }
      ],
      "name": "processAccount",
      "outputs": [
        {
          "internalType": "bool",
          "name": "",
          "type": "bool"
        }
      ],
      "stateMutability": "nonpayable",
      "type": "function"
    }
  ],
  "bytecode": "0x608060405260068054600160a060020a031916731f9840a85d5af5bf1d1762f925bdaddc4201f9841790553480156200003757600080fd5b50604080518082018252601881527f4241425943414b455f4469766964656e5f547261636b6572000000000000000060208083019182528351808501909452601984527f4241425943414b455f4469766964656e645f547261636b65720000000000000090840152815191929183918391620000b69160039162000159565b508051620000cc90600490602084019062000159565b5050506000620000ea62000154640100000000026401000000009004565b60058054600160a060020a031916600160a060020a038316908117909155604051919250906000907f8be0079c531659141344cd1fd0a4f28419497f9722a3daafe3b4186f6b6457e0908290a35050610e1060125550692a5a058fc295ed000000601355620001fb565b335b90565b828054600181600116156101000203166002900490600052602060002090601f016020900481019282601f106200019c57805160ff1916838001178555620001cc565b82800160010185558215620001cc579182015b82811115620001cc578251825591602001919060010190620001af565b50620001da929150620001de565b5090565b6200015691905b80821115620001da5760008155600101620001e5565b612268806200020b6000396000f3fe608060405234801561001057600080fd5b50600436106102205760003560e060020a9004806385a6b3ae11610129578063bc4c4b37116100b1578063e7841ec011610080578063e7841ec01461067f578063e98030c714610687578063f2fde38b146106a4578063fbcbc0f1146106ca578063ffb2c479146106f057610220565b8063bc4c4b37146105ef578063be10b6141461061d578063dd62ed3e14610625578063e30443bc1461065357610220565b8063a457c2d7116100f8578063a457c2d71461052e578063a8b9d2401461055a578063a9059cbb14610580578063aafd847a146105ac578063ba72a955146105d257610220565b806385a6b3ae146104f05780638da5cb5b146104f857806391b89fba1461050057806395d89b411461052657610220565b806331e79db0116101ac5780635183d6fd1161017b5780635183d6fd1461044a5780636a474002146104b25780636f2789ec146104ba57806370a08231146104c2578063715018a6146104e857610220565b806331e79db0146103ac57806339509351146103d45780634ca6ef28146104005780634e7b827f1461042457610220565b8063226cfa3d116101f3578063226cfa3d1461030457806323b872dd1461032a57806327ce0147146103605780633009a60914610386578063313ce5671461038e57610220565b806306fdde0314610225578063095ea7b3146102a257806309bbedde146102e257806318160ddd146102fc575b600080fd5b61022d61072b565b6040805160208082528351818301528351919283929083019185019080838360005b8381101561026757818101518382015260200161024f565b50505050905090810190601f1680156102945780820380516001836020036101000a031916815260200191505b509250505060405180910390f35b6102ce600480360360408110156102b857600080fd5b50600160a060020a0381351690602001356107c1565b604080519115158252519081900360200190f35b6102ea6107df565b60408051918252519081900360200190f35b6102ea6107e5565b6102ea6004803603602081101561031a57600080fd5b5035600160a060020a03166107eb565b6102ce6004803603606081101561034057600080fd5b50600160a060020a038135811691602081013590911690604001356107fd565b6102ea6004803603602081101561037657600080fd5b5035600160a060020a031661088a565b6102ea610902565b610396610908565b6040805160ff9092168252519081900360200190f35b6103d2600480360360208110156103c257600080fd5b5035600160a060020a031661090d565b005b6102ce600480360360408110156103ea57600080fd5b50600160a060020a038135169060200135610a85565b610408610ad9565b60408051600160a060020a039092168252519081900360200190f35b6102ce6004803603602081101561043a57600080fd5b5035600160a060020a0316610ae8565b6104676004803603602081101561046057600080fd5b5035610afd565b60408051600160a060020a0390991689526020890197909752878701959095526060870193909352608086019190915260a085015260c084015260e083015251908190036101000190f35b6103d2610c62565b6102ea610c9c565b6102ea600480360360208110156104d857600080fd5b5035600160a060020a0316610ca2565b6103d2610cbd565b6102ea610d6f565b610408610d75565b6102ea6004803603602081101561051657600080fd5b5035600160a060020a0316610d84565b61022d610d8f565b6102ce6004803603604081101561054457600080fd5b50600160a060020a038135169060200135610df0565b6102ea6004803603602081101561057057600080fd5b5035600160a060020a0316610e5e565b6102ce6004803603604081101561059657600080fd5b50600160a060020a038135169060200135610e90565b6102ea600480360360208110156105c257600080fd5b5035600160a060020a0316610ea4565b6103d2600480360360208110156105e857600080fd5b5035610ebf565b6102ce6004803603604081101561060557600080fd5b50600160a060020a0381351690602001351515610fcb565b6102ea6110a3565b6102ea6004803603604081101561063b57600080fd5b50600160a060020a03813581169160200135166110a9565b6103d26004803603604081101561066957600080fd5b50600160a060020a0381351690602001356110d4565b6102ea6112b5565b6103d26004803603602081101561069d57600080fd5b50356112bb565b6103d2600480360360208110156106ba57600080fd5b5035600160a060020a03166113e0565b610467600480360360208110156106e057600080fd5b5035600160a060020a03166114ec565b61070d6004803603602081101561070657600080fd5b5035611689565b60408051938452602084019290925282820152519081900360600190f35b60038054604080516020601f60026000196101006001881615020190951694909404938401819004810282018101909252828152606093909290918301828280156107b75780601f1061078c576101008083540402835291602001916107b7565b820191906000526020600020905b81548152906001019060200180831161079a57829003601f168201915b5050505050905090565b60006107d56107ce611793565b8484611797565b5060015b92915050565b600b5490565b60025490565b60116020526000908152604090205481565b600061080a848484611889565b61088084610816611793565b61087b8560405180606001604052806028815260200161218160289139600160a060020a038a16600090815260016020526040812090610854611793565b600160a060020a03168152602081019190915260400160002054919063ffffffff6118c316565b611797565b5060019392505050565b600160a060020a038116600090815260086020526040812054700100000000000000000000000000000000906108f2906108ed906108e16108dc6108cd88610ca2565b6007549063ffffffff61195d16565b6119c0565b9063ffffffff6119d016565b611a03565b816108f957fe5b0490505b919050565b600f5481565b601290565b610915611793565b600554600160a060020a03908116911614610968576040805160e560020a62461bcd02815260206004820181905260248201526000805160206121a9833981519152604482015290519081900360640190fd5b600160a060020a03811660009081526010602052604090205460ff161561098e57600080fd5b600160a060020a0381166000908152601060205260408120805460ff191660011790556109bc908290611a16565b604080517f4c60db9c000000000000000000000000000000000000000000000000000000008152600b6004820152600160a060020a0383166024820152905173__IterableMapping_______________________91634c60db9c916044808301926000929190829003018186803b158015610a3657600080fd5b505af4158015610a4a573d6000803e3d6000fd5b5050604051600160a060020a03841692507fa878b31040b2e6d0a9a3d3361209db3908ba62014b0dca52adbaee451d128b259150600090a250565b60006107d5610a92611793565b8461087b8560016000610aa3611793565b600160a060020a03908116825260208083019390935260409182016000908120918c16815292529020549063ffffffff611a7b16565b600654600160a060020a031681565b60106020526000908152604090205460ff1681565b600080600080600080600080600b73__IterableMapping_______________________63deb3d89690916040518263ffffffff1660e060020a0281526004018082815260200191505060206040518083038186803b158015610b5e57600080fd5b505af4158015610b72573d6000803e3d6000fd5b505050506040513d6020811015610b8857600080fd5b50518910610baf575060009650600019955085945086935083925082915081905080610c57565b6000600b73__IterableMapping_______________________63d1aa9e7e90918c6040518363ffffffff1660e060020a028152600401808381526020018281526020019250505060206040518083038186803b158015610c0e57600080fd5b505af4158015610c22573d6000803e3d6000fd5b505050506040513d6020811015610c3857600080fd5b50519050610c45816114ec565b98509850985098509850985098509850505b919395975091939597565b60405160e560020a62461bcd02815260040180806020018281038252606d815260200180612084606d913960800191505060405180910390fd5b60125481565b600160a060020a031660009081526020819052604090205490565b610cc5611793565b600554600160a060020a03908116911614610d18576040805160e560020a62461bcd02815260206004820181905260248201526000805160206121a9833981519152604482015290519081900360640190fd5b600554604051600091600160a060020a0316907f8be0079c531659141344cd1fd0a4f28419497f9722a3daafe3b4186f6b6457e0908390a36005805473ffffffffffffffffffffffffffffffffffffffff19169055565b600a5481565b600554600160a060020a031690565b60006107d982610e5e565b60048054604080516020601f60026000196101006001881615020190951694909404938401819004810282018101909252828152606093909290918301828280156107b75780601f1061078c576101008083540402835291602001916107b7565b60006107d5610dfd611793565b8461087b8560405180606001604052806025815260200161220e6025913960016000610e27611793565b600160a060020a03908116825260208083019390935260409182016000908120918d1681529252902054919063ffffffff6118c316565b600160a060020a0381166000908152600960205260408120546107d990610e848461088a565b9063ffffffff611ad816565b60006107d5610e9d611793565b8484611889565b600160a060020a031660009081526009602052604090205490565b610ec7611793565b600554600160a060020a03908116911614610f1a576040805160e560020a62461bcd02815260206004820181905260248201526000805160206121a9833981519152604482015290519081900360640190fd5b6000610f246107e5565b11610f2e57600080fd5b8015610fc857610f78610f3f6107e5565b610f608370010000000000000000000000000000000063ffffffff61195d16565b81610f6757fe5b60075491900463ffffffff611a7b16565b60075560408051828152905133917fa493a9229478c3fcd73f66d2cdeb7f94fd0f341da924d1054236d78454116511919081900360200190a2600a54610fc4908263ffffffff611a7b16565b600a555b50565b6000610fd5611793565b600554600160a060020a03908116911614611028576040805160e560020a62461bcd02815260206004820181905260248201526000805160206121a9833981519152604482015290519081900360640190fd5b600061103384611b1a565b9050801561109957600160a060020a0384166000818152601160209081526040918290204290558151848152915186151593927fa2c38e2d2fb7e3e1912d937fd1ca11ed6d51864dee4cfa7a7bf02becd7acf09292908290030190a360019150506107d9565b5060009392505050565b60135481565b600160a060020a03918216600090815260016020908152604080832093909416825291909152205490565b6110dc611793565b600554600160a060020a0390811691161461112f576040805160e560020a62461bcd02815260206004820181905260248201526000805160206121a9833981519152604482015290519081900360640190fd5b600160a060020a03821660009081526010602052604090205460ff1615611155576112b1565b6013548110611206576111688282611a16565b604080517fbc2b405c000000000000000000000000000000000000000000000000000000008152600b6004820152600160a060020a038416602482015260448101839052905173__IterableMapping_______________________9163bc2b405c916064808301926000929190829003018186803b1580156111e957600080fd5b505af41580156111fd573d6000803e3d6000fd5b505050506112a4565b611211826000611a16565b604080517f4c60db9c000000000000000000000000000000000000000000000000000000008152600b6004820152600160a060020a0384166024820152905173__IterableMapping_______________________91634c60db9c916044808301926000929190829003018186803b15801561128b57600080fd5b505af415801561129f573d6000803e3d6000fd5b505050505b6112af826001610fcb565b505b5050565b600f5490565b6112c3611793565b600554600160a060020a03908116911614611316576040805160e560020a62461bcd02815260206004820181905260248201526000805160206121a9833981519152604482015290519081900360640190fd5b610e10811015801561132b5750620151808111155b6113695760405160e560020a62461bcd02815260040180806020018281038252604e815260200180612036604e913960600191505060405180910390fd5b6012548114156113ad5760405160e560020a62461bcd0281526004018080602001828103825260408152602001806120f16040913960400191505060405180910390fd5b60125460405182907f474ea64804364a1e29a4487ddb63c3342a2dd826ccd8acf48825e680a0e6f20f90600090a3601255565b6113e8611793565b600554600160a060020a0390811691161461143b576040805160e560020a62461bcd02815260206004820181905260248201526000805160206121a9833981519152604482015290519081900360640190fd5b600160a060020a0381166114835760405160e560020a62461bcd028152600401808060200182810382526026815260200180611fee6026913960400191505060405180910390fd5b600554604051600160a060020a038084169216907f8be0079c531659141344cd1fd0a4f28419497f9722a3daafe3b4186f6b6457e090600090a36005805473ffffffffffffffffffffffffffffffffffffffff1916600160a060020a0392909216919091179055565b600080600080600080600080889750600b73__IterableMapping_______________________6317e142d190918a6040518363ffffffff1660e060020a0281526004018083815260200182600160a060020a0316600160a060020a031681526020019250505060206040518083038186803b15801561156a57600080fd5b505af415801561157e573d6000803e3d6000fd5b505050506040513d602081101561159457600080fd5b5051965060001995506000871261160a57600f548711156115ca57600f546115c390889063ffffffff611cae16565b955061160a565b600f54600b54600091106115df5760006115f4565b600f54600b546115f49163ffffffff611ad816565b9050611606888263ffffffff6119d016565b9650505b61161388610e5e565b945061161e8861088a565b600160a060020a03891660009081526011602052604090205490945092508261164857600061165c565b60125461165c90849063ffffffff611a7b16565b915042821161166c57600061167c565b61167c824263ffffffff611ad816565b9050919395975091939597565b600b5460009081908190806116a9575050600f546000925082915061178c565b600f546000805a90506000805b89841080156116c457508582105b1561177b57600b5460019095019485106116dd57600094505b6000600b60000186815481106116ef57fe5b6000918252602080832090910154600160a060020a0316808352601190915260409091205490915061172090611ce0565b1561173c57611730816001610fcb565b1561173c576001909101905b60019092019160005a9050808511156117725761176f611762868363ffffffff611ad816565b879063ffffffff611a7b16565b95505b93506116b69050565b600f85905590975095509193505050505b9193909250565b3390565b600160a060020a0383166117df5760405160e560020a62461bcd0281526004018080602001828103825260248152602001806121ea6024913960400191505060405180910390fd5b600160a060020a0382166118275760405160e560020a62461bcd0281526004018080602001828103825260228152602001806120146022913960400191505060405180910390fd5b600160a060020a03808416600081815260016020908152604080832094871680845294825291829020859055815185815291517f8c5be1e5ebec7d5bd14f71427d1e84f3dd0314c0f7b2291e5b200ac8c7c3b9259281900390910190a3505050565b60405160e560020a62461bcd02815260040180806020018281038252602f815260200180612131602f913960400191505060405180910390fd5b600081848411156119555760405160e560020a62461bcd0281526004018080602001828103825283818151815260200191508051906020019080838360005b8381101561191a578181015183820152602001611902565b50505050905090810190601f1680156119475780820380516001836020036101000a031916815260200191505b509250505060405180910390fd5b505050900390565b60008261196c575060006107d9565b8282028284828161197957fe5b04146119b95760405160e560020a62461bcd0281526004018080602001828103825260218152602001806121606021913960400191505060405180910390fd5b9392505050565b600081818112156107d957600080fd5b60008282018183128015906119e55750838112155b806119fa57506000831280156119fa57508381125b6119b957600080fd5b600080821215611a1257600080fd5b5090565b6000611a2183610ca2565b905080821115611a4f576000611a3d838363ffffffff611ad816565b9050611a498482611d0d565b506112af565b808210156112af576000611a69828463ffffffff611ad816565b9050611a758482611d77565b50505050565b6000828201838110156119b9576040805160e560020a62461bcd02815260206004820152601b60248201527f536166654d6174683a206164646974696f6e206f766572666c6f770000000000604482015290519081900360640190fd5b60006119b983836040518060400160405280601e81526020017f536166654d6174683a207375627472616374696f6e206f766572666c6f7700008152506118c3565b600080611b2683610e5e565b90508015611ca557600160a060020a038316600090815260096020526040902054611b57908263ffffffff611a7b16565b600160a060020a038416600081815260096020908152604091829020939093558051848152905191927fee503bee2bb6a87e57bc57db795f98137327401a0e7b7ce42e37926cc1a9ca4d92918290030190a2600654604080517fa9059cbb000000000000000000000000000000000000000000000000000000008152600160a060020a038681166004830152602482018590529151600093929092169163a9059cbb9160448082019260209290919082900301818787803b158015611c1b57600080fd5b505af1158015611c2f573d6000803e3d6000fd5b505050506040513d6020811015611c4557600080fd5b5051905080611c9d57600160a060020a038416600090815260096020526040902054611c77908363ffffffff611ad816565b600160a060020a03851660009081526009602052604081209190915592506108fd915050565b5090506108fd565b50600092915050565b6000818303818312801590611cc35750838113155b806119fa57506000831280156119fa57508381136119b957600080fd5b600042821115611cf2575060006108fd565b601254611d05428463ffffffff611ad816565b101592915050565b611d178282611dc1565b611d57611d326108dc8360075461195d90919063ffffffff16565b600160a060020a0384166000908152600860205260409020549063ffffffff611cae16565b600160a060020a0390921660009081526008602052604090209190915550565b611d818282611ec0565b611d57611d9c6108dc8360075461195d90919063ffffffff16565b600160a060020a0384166000908152600860205260409020549063ffffffff6119d016565b600160a060020a038216611e1f576040805160e560020a62461bcd02815260206004820152601f60248201527f45524332303a206d696e7420746f20746865207a65726f206164647265737300604482015290519081900360640190fd5b611e2b600083836112af565b600254611e3e908263ffffffff611a7b16565b600255600160a060020a038216600090815260208190526040902054611e6a908263ffffffff611a7b16565b600160a060020a0383166000818152602081815260408083209490945583518581529351929391927fddf252ad1be2c89b69c2b068fc378daa952ba7f163c4a11628f55a4df523b3ef9281900390910190a35050565b600160a060020a038216611f085760405160e560020a62461bcd0281526004018080602001828103825260218152602001806121c96021913960400191505060405180910390fd5b611f14826000836112af565b611f5781604051806060016040528060228152602001611fcc60229139600160a060020a038516600090815260208190526040902054919063ffffffff6118c316565b600160a060020a038316600090815260208190526040902055600254611f83908263ffffffff611ad816565b600255604080518281529051600091600160a060020a038516917fddf252ad1be2c89b69c2b068fc378daa952ba7f163c4a11628f55a4df523b3ef9181900360200190a3505056fe45524332303a206275726e20616d6f756e7420657863656564732062616c616e63654f776e61626c653a206e6577206f776e657220697320746865207a65726f206164647265737345524332303a20617070726f766520746f20746865207a65726f20616464726573734241425943414b455f4469766964656e645f547261636b65723a20636c61696d57616974206d757374206265207570646174656420746f206265747765656e203120616e6420323420686f7572734241425943414b455f4469766964656e645f547261636b65723a2077697468647261774469766964656e642064697361626c65642e20557365207468652027636c61696d272066756e6374696f6e206f6e20746865206d61696e204241425943414b4520636f6e74726163742e4241425943414b455f4469766964656e645f547261636b65723a2043616e6e6f742075706461746520636c61696d5761697420746f2073616d652076616c75654241425943414b455f4469766964656e645f547261636b65723a204e6f207472616e736665727320616c6c6f776564536166654d6174683a206d756c7469706c69636174696f6e206f766572666c6f7745524332303a207472616e7366657220616d6f756e74206578636565647320616c6c6f77616e63654f776e61626c653a2063616c6c6572206973206e6f7420746865206f776e657245524332303a206275726e2066726f6d20746865207a65726f206164647265737345524332303a20617070726f76652066726f6d20746865207a65726f206164647265737345524332303a2064656372656173656420616c6c6f77616e63652062656c6f77207a65726fa26469706673582212205cfc2681ff460d032b8920e6c4da80dfa3bd3b8c644cde838e184f4609b84cbe64736f6c63430006020033",
  "source": "// SPDX-License-Identifier: MIT\r\n\r\n//\r\n// $BabyCake proposes an innovative feature in its contract.\r\n//\r\n// DIVIDEND YIELD PAID IN CAKE! With the auto-claim feature,\r\n// simply hold$BabyCake and you'll receive CAKE automatically in your wallet.\r\n//\r\n// Hold Baby Cake and get rewarded in Cake on every transaction!\r\n//\r\n//\r\n//  Telegram: https://t.me/babycakeBSC\r\n//  Website: https://www.babycake.app/\r\n//  Twitter: https://twitter.com/BabyCakeBSC\r\n//\r\n\r\npragma solidity ^0.6.2;\r\n\r\nimport \"./DividendPayingToken.sol\";\r\nimport \"./SafeMath.sol\";\r\nimport \"./IterableMapping.sol\";\r\nimport \"./Ownable.sol\";\r\nimport \"./IUniswapV2Pair.sol\";\r\nimport \"./IUniswapV2Factory.sol\";\r\nimport \"./IUniswapV2Router.sol\";\r\n\r\ncontract BABYCAKE is ERC20, Ownable {\r\n    using SafeMath for uint256;\r\n\r\n    IUniswapV2Router02 public uniswapV2Router;\r\n    address public uniswapV2Pair;\r\n\r\n    bool private swapping;\r\n\r\n    BABYCAKEDividendTracker public dividendTracker;\r\n\r\n    address public deadWallet = 0x000000000000000000000000000000000000dEaD;\r\n\r\n    address public CAKE = address(0x1f9840a85d5aF5bf1D1762F925BDADdC4201F984); //CAKE:0x0E09FaBB73Bd3Ade0a17ECC321fD13a19e81cE82\r\n\r\n    uint256 public swapTokensAtAmount = 2000000 * (10**18);\r\n\r\n    mapping(address => bool) public _isBlacklisted;\r\n\r\n    uint256 public CAKERewardsFee = 7;\r\n    uint256 public liquidityFee = 3;\r\n    uint256 public marketingFee = 5;\r\n    uint256 public totalFees =\r\n        CAKERewardsFee.add(liquidityFee).add(marketingFee);\r\n\r\n    address public _marketingWalletAddress =\r\n        0x21AB3CD821a970bBDB449617d1C2e4ACe1ee155a;\r\n\r\n    // use by default 300,000 gas to process auto-claiming dividends\r\n    uint256 public gasForProcessing = 300000;\r\n\r\n    // exlcude from fees and max transaction amount\r\n    mapping(address => bool) private _isExcludedFromFees;\r\n\r\n    // store addresses that a automatic market maker pairs. Any transfer *to* these addresses\r\n    // could be subject to a maximum transfer amount\r\n    mapping(address => bool) public automatedMarketMakerPairs;\r\n\r\n    event UpdateDividendTracker(\r\n        address indexed newAddress,\r\n        address indexed oldAddress\r\n    );\r\n\r\n    event UpdateUniswapV2Router(\r\n        address indexed newAddress,\r\n        address indexed oldAddress\r\n    );\r\n\r\n    event ExcludeFromFees(address indexed account, bool isExcluded);\r\n    event ExcludeMultipleAccountsFromFees(address[] accounts, bool isExcluded);\r\n\r\n    event SetAutomatedMarketMakerPair(address indexed pair, bool indexed value);\r\n\r\n    event LiquidityWalletUpdated(\r\n        address indexed newLiquidityWallet,\r\n        address indexed oldLiquidityWallet\r\n    );\r\n\r\n    event GasForProcessingUpdated(\r\n        uint256 indexed newValue,\r\n        uint256 indexed oldValue\r\n    );\r\n\r\n    event SwapAndLiquify(\r\n        uint256 tokensSwapped,\r\n        uint256 ethReceived,\r\n        uint256 tokensIntoLiqudity\r\n    );\r\n\r\n    event SendDividends(uint256 tokensSwapped, uint256 amount);\r\n\r\n    event ProcessedDividendTracker(\r\n        uint256 iterations,\r\n        uint256 claims,\r\n        uint256 lastProcessedIndex,\r\n        bool indexed automatic,\r\n        uint256 gas,\r\n        address indexed processor\r\n    );\r\n\r\n    constructor() public ERC20(\"BABY CAKE\", \"BABYCAKE\") {\r\n        dividendTracker = new BABYCAKEDividendTracker();\r\n\r\n        IUniswapV2Router02 _uniswapV2Router = IUniswapV2Router02(\r\n            0x7a250d5630B4cF539739dF2C5dAcb4c659F2488D\r\n        );\r\n        // Create a uniswap pair for this new token\r\n        address _uniswapV2Pair = IUniswapV2Factory(_uniswapV2Router.factory())\r\n        .createPair(address(this), _uniswapV2Router.WETH());\r\n\r\n        uniswapV2Router = _uniswapV2Router;\r\n        uniswapV2Pair = _uniswapV2Pair;\r\n\r\n        _setAutomatedMarketMakerPair(_uniswapV2Pair, true);\r\n\r\n        // exclude from receiving dividends\r\n        dividendTracker.excludeFromDividends(address(dividendTracker));\r\n        dividendTracker.excludeFromDividends(address(this));\r\n        dividendTracker.excludeFromDividends(owner());\r\n        dividendTracker.excludeFromDividends(deadWallet);\r\n        dividendTracker.excludeFromDividends(address(_uniswapV2Router));\r\n\r\n        // exclude from paying fees or having max transaction amount\r\n        excludeFromFees(owner(), true);\r\n        excludeFromFees(_marketingWalletAddress, true);\r\n        excludeFromFees(address(this), true);\r\n\r\n        /*\r\n            _mint is an internal function in ERC20.sol that is only called here,\r\n            and CANNOT be called ever again\r\n        */\r\n        _mint(owner(), 100000000000 * (10**18));\r\n    }\r\n\r\n    receive() external payable {}\r\n\r\n    function updateDividendTracker(address newAddress) public onlyOwner {\r\n        require(\r\n            newAddress != address(dividendTracker),\r\n            \"BABYCAKE: The dividend tracker already has that address\"\r\n        );\r\n\r\n        BABYCAKEDividendTracker newDividendTracker = BABYCAKEDividendTracker(\r\n            payable(newAddress)\r\n        );\r\n\r\n        require(\r\n            newDividendTracker.owner() == address(this),\r\n            \"BABYCAKE: The new dividend tracker must be owned by the BABYCAKE token contract\"\r\n        );\r\n\r\n        newDividendTracker.excludeFromDividends(address(newDividendTracker));\r\n        newDividendTracker.excludeFromDividends(address(this));\r\n        newDividendTracker.excludeFromDividends(owner());\r\n        newDividendTracker.excludeFromDividends(address(uniswapV2Router));\r\n\r\n        emit UpdateDividendTracker(newAddress, address(dividendTracker));\r\n\r\n        dividendTracker = newDividendTracker;\r\n    }\r\n\r\n    function updateUniswapV2Router(address newAddress) public onlyOwner {\r\n        require(\r\n            newAddress != address(uniswapV2Router),\r\n            \"BABYCAKE: The router already has that address\"\r\n        );\r\n        emit UpdateUniswapV2Router(newAddress, address(uniswapV2Router));\r\n        uniswapV2Router = IUniswapV2Router02(newAddress);\r\n        address _uniswapV2Pair = IUniswapV2Factory(uniswapV2Router.factory())\r\n        .createPair(address(this), uniswapV2Router.WETH());\r\n        uniswapV2Pair = _uniswapV2Pair;\r\n    }\r\n\r\n    function excludeFromFees(address account, bool excluded) public onlyOwner {\r\n        require(\r\n            _isExcludedFromFees[account] != excluded,\r\n            \"BABYCAKE: Account is already the value of 'excluded'\"\r\n        );\r\n        _isExcludedFromFees[account] = excluded;\r\n\r\n        emit ExcludeFromFees(account, excluded);\r\n    }\r\n\r\n    function excludeMultipleAccountsFromFees(\r\n        address[] memory accounts,\r\n        bool excluded\r\n    ) public onlyOwner {\r\n        for (uint256 i = 0; i < accounts.length; i++) {\r\n            _isExcludedFromFees[accounts[i]] = excluded;\r\n        }\r\n\r\n        emit ExcludeMultipleAccountsFromFees(accounts, excluded);\r\n    }\r\n\r\n    function setMarketingWallet(address payable wallet) external onlyOwner {\r\n        _marketingWalletAddress = wallet;\r\n    }\r\n\r\n    function setCAKERewardsFee(uint256 value) external onlyOwner {\r\n        CAKERewardsFee = value;\r\n        totalFees = CAKERewardsFee.add(liquidityFee).add(marketingFee);\r\n    }\r\n\r\n    function setLiquiditFee(uint256 value) external onlyOwner {\r\n        liquidityFee = value;\r\n        totalFees = CAKERewardsFee.add(liquidityFee).add(marketingFee);\r\n    }\r\n\r\n    function setMarketingFee(uint256 value) external onlyOwner {\r\n        marketingFee = value;\r\n        totalFees = CAKERewardsFee.add(liquidityFee).add(marketingFee);\r\n    }\r\n\r\n    function setAutomatedMarketMakerPair(address pair, bool value)\r\n        public\r\n        onlyOwner\r\n    {\r\n        require(\r\n            pair != uniswapV2Pair,\r\n            \"BABYCAKE: The PancakeSwap pair cannot be removed from automatedMarketMakerPairs\"\r\n        );\r\n\r\n        _setAutomatedMarketMakerPair(pair, value);\r\n    }\r\n\r\n    function blacklistAddress(address account, bool value) external onlyOwner {\r\n        _isBlacklisted[account] = value;\r\n    }\r\n\r\n    function _setAutomatedMarketMakerPair(address pair, bool value) private {\r\n        require(\r\n            automatedMarketMakerPairs[pair] != value,\r\n            \"BABYCAKE: Automated market maker pair is already set to that value\"\r\n        );\r\n        automatedMarketMakerPairs[pair] = value;\r\n\r\n        if (value) {\r\n            dividendTracker.excludeFromDividends(pair);\r\n        }\r\n\r\n        emit SetAutomatedMarketMakerPair(pair, value);\r\n    }\r\n\r\n    function updateGasForProcessing(uint256 newValue) public onlyOwner {\r\n        require(\r\n            newValue >= 200000 && newValue <= 500000,\r\n            \"BABYCAKE: gasForProcessing must be between 200,000 and 500,000\"\r\n        );\r\n        require(\r\n            newValue != gasForProcessing,\r\n            \"BABYCAKE: Cannot update gasForProcessing to same value\"\r\n        );\r\n        emit GasForProcessingUpdated(newValue, gasForProcessing);\r\n        gasForProcessing = newValue;\r\n    }\r\n\r\n    function updateClaimWait(uint256 claimWait) external onlyOwner {\r\n        dividendTracker.updateClaimWait(claimWait);\r\n    }\r\n\r\n    function getClaimWait() external view returns (uint256) {\r\n        return dividendTracker.claimWait();\r\n    }\r\n\r\n    function getTotalDividendsDistributed() external view returns (uint256) {\r\n        return dividendTracker.totalDividendsDistributed();\r\n    }\r\n\r\n    function isExcludedFromFees(address account) public view returns (bool) {\r\n        return _isExcludedFromFees[account];\r\n    }\r\n\r\n    function withdrawableDividendOf(address account)\r\n        public\r\n        view\r\n        returns (uint256)\r\n    {\r\n        return dividendTracker.withdrawableDividendOf(account);\r\n    }\r\n\r\n    function dividendTokenBalanceOf(address account)\r\n        public\r\n        view\r\n        returns (uint256)\r\n    {\r\n        return dividendTracker.balanceOf(account);\r\n    }\r\n\r\n    function excludeFromDividends(address account) external onlyOwner {\r\n        dividendTracker.excludeFromDividends(account);\r\n    }\r\n\r\n    function getAccountDividendsInfo(address account)\r\n        external\r\n        view\r\n        returns (\r\n            address,\r\n            int256,\r\n            int256,\r\n            uint256,\r\n            uint256,\r\n            uint256,\r\n            uint256,\r\n            uint256\r\n        )\r\n    {\r\n        return dividendTracker.getAccount(account);\r\n    }\r\n\r\n    function getAccountDividendsInfoAtIndex(uint256 index)\r\n        external\r\n        view\r\n        returns (\r\n            address,\r\n            int256,\r\n            int256,\r\n            uint256,\r\n            uint256,\r\n            uint256,\r\n            uint256,\r\n            uint256\r\n        )\r\n    {\r\n        return dividendTracker.getAccountAtIndex(index);\r\n    }\r\n\r\n    function processDividendTracker(uint256 gas) external {\r\n        (\r\n            uint256 iterations,\r\n            uint256 claims,\r\n            uint256 lastProcessedIndex\r\n        ) = dividendTracker.process(gas);\r\n        emit ProcessedDividendTracker(\r\n            iterations,\r\n            claims,\r\n            lastProcessedIndex,\r\n            false,\r\n            gas,\r\n            tx.origin\r\n        );\r\n    }\r\n\r\n    function claim() external {\r\n        dividendTracker.processAccount(msg.sender, false);\r\n    }\r\n\r\n    function getLastProcessedIndex() external view returns (uint256) {\r\n        return dividendTracker.getLastProcessedIndex();\r\n    }\r\n\r\n    function getNumberOfDividendTokenHolders() external view returns (uint256) {\r\n        return dividendTracker.getNumberOfTokenHolders();\r\n    }\r\n\r\n    function _transfer(\r\n        address from,\r\n        address to,\r\n        uint256 amount\r\n    ) internal override {\r\n        require(from != address(0), \"ERC20: transfer from the zero address\");\r\n        require(to != address(0), \"ERC20: transfer to the zero address\");\r\n        require(\r\n            !_isBlacklisted[from] && !_isBlacklisted[to],\r\n            \"Blacklisted address\"\r\n        );\r\n\r\n        if (amount == 0) {\r\n            super._transfer(from, to, 0);\r\n            return;\r\n        }\r\n\r\n        uint256 contractTokenBalance = balanceOf(address(this));\r\n\r\n        bool canSwap = contractTokenBalance >= swapTokensAtAmount;\r\n\r\n        if (\r\n            canSwap &&\r\n            !swapping &&\r\n            !automatedMarketMakerPairs[from] &&\r\n            from != owner() &&\r\n            to != owner()\r\n        ) {\r\n            swapping = true;\r\n\r\n            uint256 marketingTokens = contractTokenBalance\r\n            .mul(marketingFee)\r\n            .div(totalFees);\r\n            swapAndSendToFee(marketingTokens);\r\n\r\n            uint256 swapTokens = contractTokenBalance.mul(liquidityFee).div(\r\n                totalFees\r\n            );\r\n            swapAndLiquify(swapTokens);\r\n\r\n            uint256 sellTokens = balanceOf(address(this));\r\n            swapAndSendDividends(sellTokens);\r\n\r\n            swapping = false;\r\n        }\r\n\r\n        bool takeFee = !swapping;\r\n\r\n        // if any account belongs to _isExcludedFromFee account then remove the fee\r\n        if (_isExcludedFromFees[from] || _isExcludedFromFees[to]) {\r\n            takeFee = false;\r\n        }\r\n\r\n        if (takeFee) {\r\n            uint256 fees = amount.mul(totalFees).div(100);\r\n            if (automatedMarketMakerPairs[to]) {\r\n                fees += amount.mul(1).div(100);\r\n            }\r\n            amount = amount.sub(fees);\r\n\r\n            super._transfer(from, address(this), fees);\r\n        }\r\n\r\n        super._transfer(from, to, amount);\r\n\r\n        try\r\n            dividendTracker.setBalance(payable(from), balanceOf(from))\r\n        {} catch {}\r\n        try dividendTracker.setBalance(payable(to), balanceOf(to)) {} catch {}\r\n\r\n        if (!swapping) {\r\n            uint256 gas = gasForProcessing;\r\n\r\n            try dividendTracker.process(gas) returns (\r\n                uint256 iterations,\r\n                uint256 claims,\r\n                uint256 lastProcessedIndex\r\n            ) {\r\n                emit ProcessedDividendTracker(\r\n                    iterations,\r\n                    claims,\r\n                    lastProcessedIndex,\r\n                    true,\r\n                    gas,\r\n                    tx.origin\r\n                );\r\n            } catch {}\r\n        }\r\n    }\r\n\r\n    function swapAndSendToFee(uint256 tokens) private {\r\n        uint256 initialCAKEBalance = IERC20(CAKE).balanceOf(address(this));\r\n\r\n        swapTokensForCake(tokens);\r\n        uint256 newBalance = (IERC20(CAKE).balanceOf(address(this))).sub(\r\n            initialCAKEBalance\r\n        );\r\n        IERC20(CAKE).transfer(_marketingWalletAddress, newBalance);\r\n    }\r\n\r\n    function swapAndLiquify(uint256 tokens) private {\r\n        // split the contract balance into halves\r\n        uint256 half = tokens.div(2);\r\n        uint256 otherHalf = tokens.sub(half);\r\n\r\n        // capture the contract's current ETH balance.\r\n        // this is so that we can capture exactly the amount of ETH that the\r\n        // swap creates, and not make the liquidity event include any ETH that\r\n        // has been manually sent to the contract\r\n        uint256 initialBalance = address(this).balance;\r\n\r\n        // swap tokens for ETH\r\n        swapTokensForEth(half); // <- this breaks the ETH -> HATE swap when swap+liquify is triggered\r\n\r\n        // how much ETH did we just swap into?\r\n        uint256 newBalance = address(this).balance.sub(initialBalance);\r\n\r\n        // add liquidity to uniswap\r\n        addLiquidity(otherHalf, newBalance);\r\n\r\n        emit SwapAndLiquify(half, newBalance, otherHalf);\r\n    }\r\n\r\n    function swapTokensForEth(uint256 tokenAmount) private {\r\n        // generate the uniswap pair path of token -> weth\r\n        address[] memory path = new address[](2);\r\n        path[0] = address(this);\r\n        path[1] = uniswapV2Router.WETH();\r\n\r\n        _approve(address(this), address(uniswapV2Router), tokenAmount);\r\n\r\n        // make the swap\r\n        uniswapV2Router.swapExactTokensForETHSupportingFeeOnTransferTokens(\r\n            tokenAmount,\r\n            0, // accept any amount of ETH\r\n            path,\r\n            address(this),\r\n            block.timestamp\r\n        );\r\n    }\r\n\r\n    function swapTokensForCake(uint256 tokenAmount) private {\r\n        address[] memory path = new address[](3);\r\n        path[0] = address(this);\r\n        path[1] = uniswapV2Router.WETH();\r\n        path[2] = CAKE;\r\n\r\n        _approve(address(this), address(uniswapV2Router), tokenAmount);\r\n\r\n        // make the swap\r\n        uniswapV2Router.swapExactTokensForTokensSupportingFeeOnTransferTokens(\r\n            tokenAmount,\r\n            0,\r\n            path,\r\n            address(this),\r\n            block.timestamp\r\n        );\r\n    }\r\n\r\n    function addLiquidity(uint256 tokenAmount, uint256 ethAmount) private {\r\n        // approve token transfer to cover all possible scenarios\r\n        _approve(address(this), address(uniswapV2Router), tokenAmount);\r\n\r\n        // add the liquidity\r\n        uniswapV2Router.addLiquidityETH{value: ethAmount}(\r\n            address(this),\r\n            tokenAmount,\r\n            0, // slippage is unavoidable\r\n            0, // slippage is unavoidable\r\n            address(0),\r\n            block.timestamp\r\n        );\r\n    }\r\n\r\n    function swapAndSendDividends(uint256 tokens) private {\r\n        swapTokensForCake(tokens);\r\n        uint256 dividends = IERC20(CAKE).balanceOf(address(this));\r\n        bool success = IERC20(CAKE).transfer(\r\n            address(dividendTracker),\r\n            dividends\r\n        );\r\n\r\n        if (success) {\r\n            dividendTracker.distributeCAKEDividends(dividends);\r\n            emit SendDividends(tokens, dividends);\r\n        }\r\n    }\r\n}\r\n\r\ncontract BABYCAKEDividendTracker is Ownable, DividendPayingToken {\r\n    using SafeMath for uint256;\r\n    using SafeMathInt for int256;\r\n    using IterableMapping for IterableMapping.Map;\r\n\r\n    IterableMapping.Map private tokenHoldersMap;\r\n    uint256 public lastProcessedIndex;\r\n\r\n    mapping(address => bool) public excludedFromDividends;\r\n\r\n    mapping(address => uint256) public lastClaimTimes;\r\n\r\n    uint256 public claimWait;\r\n    uint256 public minimumTokenBalanceForDividends;\r\n\r\n    event ExcludeFromDividends(address indexed account);\r\n    event ClaimWaitUpdated(uint256 indexed newValue, uint256 indexed oldValue);\r\n\r\n    event Claim(\r\n        address indexed account,\r\n        uint256 amount,\r\n        bool indexed automatic\r\n    );\r\n\r\n    constructor()\r\n        public\r\n        DividendPayingToken(\r\n            \"BABYCAKE_Dividen_Tracker\",\r\n            \"BABYCAKE_Dividend_Tracker\"\r\n        )\r\n    {\r\n        claimWait = 3600;\r\n        minimumTokenBalanceForDividends = 200000 * (10**18); //must hold 200000+ tokens\r\n    }\r\n\r\n    function _transfer(\r\n        address,\r\n        address,\r\n        uint256\r\n    ) internal override {\r\n        require(false, \"BABYCAKE_Dividend_Tracker: No transfers allowed\");\r\n    }\r\n\r\n    function withdrawDividend() public override {\r\n        require(\r\n            false,\r\n            \"BABYCAKE_Dividend_Tracker: withdrawDividend disabled. Use the 'claim' function on the main BABYCAKE contract.\"\r\n        );\r\n    }\r\n\r\n    function excludeFromDividends(address account) external onlyOwner {\r\n        require(!excludedFromDividends[account]);\r\n        excludedFromDividends[account] = true;\r\n\r\n        _setBalance(account, 0);\r\n        tokenHoldersMap.remove(account);\r\n\r\n        emit ExcludeFromDividends(account);\r\n    }\r\n\r\n    function updateClaimWait(uint256 newClaimWait) external onlyOwner {\r\n        require(\r\n            newClaimWait >= 3600 && newClaimWait <= 86400,\r\n            \"BABYCAKE_Dividend_Tracker: claimWait must be updated to between 1 and 24 hours\"\r\n        );\r\n        require(\r\n            newClaimWait != claimWait,\r\n            \"BABYCAKE_Dividend_Tracker: Cannot update claimWait to same value\"\r\n        );\r\n        emit ClaimWaitUpdated(newClaimWait, claimWait);\r\n        claimWait = newClaimWait;\r\n    }\r\n\r\n    function getLastProcessedIndex() external view returns (uint256) {\r\n        return lastProcessedIndex;\r\n    }\r\n\r\n    function getNumberOfTokenHolders() external view returns (uint256) {\r\n        return tokenHoldersMap.keys.length;\r\n    }\r\n\r\n    function getAccount(address _account)\r\n        public\r\n        view\r\n        returns (\r\n            address account,\r\n            int256 index,\r\n            int256 iterationsUntilProcessed,\r\n            uint256 withdrawableDividends,\r\n            uint256 totalDividends,\r\n            uint256 lastClaimTime,\r\n            uint256 nextClaimTime,\r\n            uint256 secondsUntilAutoClaimAvailable\r\n        )\r\n    {\r\n        account = _account;\r\n\r\n        index = tokenHoldersMap.getIndexOfKey(account);\r\n\r\n        iterationsUntilProcessed = -1;\r\n\r\n        if (index >= 0) {\r\n            if (uint256(index) > lastProcessedIndex) {\r\n                iterationsUntilProcessed = index.sub(\r\n                    int256(lastProcessedIndex)\r\n                );\r\n            } else {\r\n                uint256 processesUntilEndOfArray = tokenHoldersMap.keys.length >\r\n                    lastProcessedIndex\r\n                    ? tokenHoldersMap.keys.length.sub(lastProcessedIndex)\r\n                    : 0;\r\n\r\n                iterationsUntilProcessed = index.add(\r\n                    int256(processesUntilEndOfArray)\r\n                );\r\n            }\r\n        }\r\n\r\n        withdrawableDividends = withdrawableDividendOf(account);\r\n        totalDividends = accumulativeDividendOf(account);\r\n\r\n        lastClaimTime = lastClaimTimes[account];\r\n\r\n        nextClaimTime = lastClaimTime > 0 ? lastClaimTime.add(claimWait) : 0;\r\n\r\n        secondsUntilAutoClaimAvailable = nextClaimTime > block.timestamp\r\n            ? nextClaimTime.sub(block.timestamp)\r\n            : 0;\r\n    }\r\n\r\n    function getAccountAtIndex(uint256 index)\r\n        public\r\n        view\r\n        returns (\r\n            address,\r\n            int256,\r\n            int256,\r\n            uint256,\r\n            uint256,\r\n            uint256,\r\n            uint256,\r\n            uint256\r\n        )\r\n    {\r\n        if (index >= tokenHoldersMap.size()) {\r\n            return (\r\n                0x0000000000000000000000000000000000000000,\r\n                -1,\r\n                -1,\r\n                0,\r\n                0,\r\n                0,\r\n                0,\r\n                0\r\n            );\r\n        }\r\n\r\n        address account = tokenHoldersMap.getKeyAtIndex(index);\r\n\r\n        return getAccount(account);\r\n    }\r\n\r\n    function canAutoClaim(uint256 lastClaimTime) private view returns (bool) {\r\n        if (lastClaimTime > block.timestamp) {\r\n            return false;\r\n        }\r\n\r\n        return block.timestamp.sub(lastClaimTime) >= claimWait;\r\n    }\r\n\r\n    function setBalance(address payable account, uint256 newBalance)\r\n        external\r\n        onlyOwner\r\n    {\r\n        if (excludedFromDividends[account]) {\r\n            return;\r\n        }\r\n\r\n        if (newBalance >= minimumTokenBalanceForDividends) {\r\n            _setBalance(account, newBalance);\r\n            tokenHoldersMap.set(account, newBalance);\r\n        } else {\r\n            _setBalance(account, 0);\r\n            tokenHoldersMap.remove(account);\r\n        }\r\n\r\n        processAccount(account, true);\r\n    }\r\n\r\n    function process(uint256 gas)\r\n        public\r\n        returns (\r\n            uint256,\r\n            uint256,\r\n            uint256\r\n        )\r\n    {\r\n        uint256 numberOfTokenHolders = tokenHoldersMap.keys.length;\r\n\r\n        if (numberOfTokenHolders == 0) {\r\n            return (0, 0, lastProcessedIndex);\r\n        }\r\n\r\n        uint256 _lastProcessedIndex = lastProcessedIndex;\r\n\r\n        uint256 gasUsed = 0;\r\n\r\n        uint256 gasLeft = gasleft();\r\n\r\n        uint256 iterations = 0;\r\n        uint256 claims = 0;\r\n\r\n        while (gasUsed < gas && iterations < numberOfTokenHolders) {\r\n            _lastProcessedIndex++;\r\n\r\n            if (_lastProcessedIndex >= tokenHoldersMap.keys.length) {\r\n                _lastProcessedIndex = 0;\r\n            }\r\n\r\n            address account = tokenHoldersMap.keys[_lastProcessedIndex];\r\n\r\n            if (canAutoClaim(lastClaimTimes[account])) {\r\n                if (processAccount(payable(account), true)) {\r\n                    claims++;\r\n                }\r\n            }\r\n\r\n            iterations++;\r\n\r\n            uint256 newGasLeft = gasleft();\r\n\r\n            if (gasLeft > newGasLeft) {\r\n                gasUsed = gasUsed.add(gasLeft.sub(newGasLeft));\r\n            }\r\n\r\n            gasLeft = newGasLeft;\r\n        }\r\n\r\n        lastProcessedIndex = _lastProcessedIndex;\r\n\r\n        return (iterations, claims, lastProcessedIndex);\r\n    }\r\n\r\n    function processAccount(address payable account, bool automatic)\r\n        public\r\n        onlyOwner\r\n        returns (bool)\r\n    {\r\n        uint256 amount = _withdrawDividendOfUser(account);\r\n\r\n        if (amount > 0) {\r\n            lastClaimTimes[account] = block.timestamp;\r\n            emit Claim(account, amount, automatic);\r\n            return true;\r\n        }\r\n\r\n        return false;\r\n    }\r\n}\r\n",
  "sourcePath": "D:/working/blockchain/test_smart_contract_auditing/contracts/BABYCAKE.sol",
  "compiler": {
    "name": "solc",
    "version": "0.6.2+commit.bacdbe57.Emscripten.clang"
  },
  "schemaVersion": "3.4.1",
  "updatedAt": "2021-07-24T19:34:16.271Z",
  "devdoc": {
    "methods": {
      "accumulativeDividendOf(address)": {
        "details": "accumulativeDividendOf(_owner) = withdrawableDividendOf(_owner) + withdrawnDividendOf(_owner) = (magnifiedDividendPerShare * balanceOf(_owner) + magnifiedDividendCorrections[_owner]) / magnitude",
        "params": {
          "_owner": "The address of a token holder."
        },
        "returns": {
          "_0": "The amount of dividend in wei that `_owner` has earned in total."
        }
      },
      "allowance(address,address)": {
        "details": "See {IERC20-allowance}."
      },
      "approve(address,uint256)": {
        "details": "See {IERC20-approve}.      * Requirements:      * - `spender` cannot be the zero address."
      },
      "balanceOf(address)": {
        "details": "See {IERC20-balanceOf}."
      },
      "decimals()": {
        "details": "Returns the number of decimals used to get its user representation. For example, if `decimals` equals `2`, a balance of `505` tokens should be displayed to a user as `5,05` (`505 / 10 ** 2`).      * Tokens usually opt for a value of 18, imitating the relationship between Ether and Wei. This is the value {ERC20} uses, unless this function is overridden;      * NOTE: This information is only used for _display_ purposes: it in no way affects any of the arithmetic of the contract, including {IERC20-balanceOf} and {IERC20-transfer}."
      },
      "decreaseAllowance(address,uint256)": {
        "details": "Atomically decreases the allowance granted to `spender` by the caller.      * This is an alternative to {approve} that can be used as a mitigation for problems described in {IERC20-approve}.      * Emits an {Approval} event indicating the updated allowance.      * Requirements:      * - `spender` cannot be the zero address. - `spender` must have allowance for the caller of at least `subtractedValue`."
      },
      "dividendOf(address)": {
        "params": {
          "_owner": "The address of a token holder."
        },
        "returns": {
          "_0": "The amount of dividend in wei that `_owner` can withdraw."
        }
      },
      "increaseAllowance(address,uint256)": {
        "details": "Atomically increases the allowance granted to `spender` by the caller.      * This is an alternative to {approve} that can be used as a mitigation for problems described in {IERC20-approve}.      * Emits an {Approval} event indicating the updated allowance.      * Requirements:      * - `spender` cannot be the zero address."
      },
      "name()": {
        "details": "Returns the name of the token."
      },
      "owner()": {
        "details": "Returns the address of the current owner."
      },
      "renounceOwnership()": {
        "details": "Leaves the contract without owner. It will not be possible to call `onlyOwner` functions anymore. Can only be called by the current owner.      * NOTE: Renouncing ownership will leave the contract without an owner, thereby removing any functionality that is only available to the owner."
      },
      "symbol()": {
        "details": "Returns the symbol of the token, usually a shorter version of the name."
      },
      "totalSupply()": {
        "details": "See {IERC20-totalSupply}."
      },
      "transfer(address,uint256)": {
        "details": "See {IERC20-transfer}.      * Requirements:      * - `recipient` cannot be the zero address. - the caller must have a balance of at least `amount`."
      },
      "transferFrom(address,address,uint256)": {
        "details": "See {IERC20-transferFrom}.      * Emits an {Approval} event indicating the updated allowance. This is not required by the EIP. See the note at the beginning of {ERC20}.      * Requirements:      * - `sender` and `recipient` cannot be the zero address. - `sender` must have a balance of at least `amount`. - the caller must have allowance for ``sender``'s tokens of at least `amount`."
      },
      "transferOwnership(address)": {
        "details": "Transfers ownership of the contract to a new account (`newOwner`). Can only be called by the current owner."
      },
      "withdrawableDividendOf(address)": {
        "params": {
          "_owner": "The address of a token holder."
        },
        "returns": {
          "_0": "The amount of dividend in wei that `_owner` can withdraw."
        }
      },
      "withdrawnDividendOf(address)": {
        "params": {
          "_owner": "The address of a token holder."
        },
        "returns": {
          "_0": "The amount of dividend in wei that `_owner` has withdrawn."
        }
      }
    }
  },
  "userdoc": {
    "methods": {
      "accumulativeDividendOf(address)": {
        "notice": "View the amount of dividend in wei that an address has earned in total."
      },
      "dividendOf(address)": {
        "notice": "View the amount of dividend in wei that an address can withdraw."
      },
      "withdrawableDividendOf(address)": {
        "notice": "View the amount of dividend in wei that an address can withdraw."
      },
      "withdrawnDividendOf(address)": {
        "notice": "View the amount of dividend in wei that an address has withdrawn."
      }
    }
  }
}